:1000000072C000009EC000009CC000009AC00000AA
:1000100098C0000096C0000094C0000092C000008C
:1000200090C000008EC000008CC000008AC000009C
:1000300088C0000086C0000084C0000082C00000AC
:1000400080C000007EC000007CC000007AC00000BC
:1000500078C0000076C0000074C00000D0C000006E
:1000600070C00000CFC2000003C300006AC00000DF
:1000700068C0000066C0000064C0000062C00000EC
:1000800060C000005EC000005CC000005AC00000FC
:1000900058C0000056C0000054C0000052C000000C
:1000A00050C000004EC000004CC000004AC000001C
:1000B00048C0000046C0000044C0000042C000002C
:1000C00040C000003EC000003CC000003AC000003C
:1000D00038C0000036C0000034C0000032C000004C
:1000E00030C000006A0311241FBECFEFD1E2DEBF93
:1000F000CDBF00E00CBF12E0A0E0B2E0ECE1F8E020
:1001000000E00BBF02C007900D92A235B107D9F7EE
:1001100022E0A2E5B2E001C01D92AC3FB207E1F7D8
:1001200010E0C6EED0E000E005C022970109FE0114
:100130000BBF5AD3C43ED10780E00807B1F70ED3F6
:100140006BC35ECF60EA7FE080E090E0C5C0CF93F4
:10015000DF93D82FC62F406B642F8FE592E0EED14E
:100160006D2F8FE592E0EAD16C2F8FE592E0DF9161
:10017000CF91E4C1CF93C82F606C8FE592E0DED1C0
:100180006C2F8FE592E0CF91D9C18091540290916C
:100190005502409724F01092550210925402E091BB
:1001A0005402F0915502EE0FFF1FEE5FFD4F60917C
:1001B00052028081DFDFE0915402F0915502EE0F90
:1001C000FF1FEE5DFD4F4091520260818DE0BFDF69
:1001D000809154029091550201969093550280931C
:1001E00054020895D2DF609100027091010288E903
:1001F0009AE3E7D2882777FD8095982F6DC01F92EC
:100200000F920FB60F9211242F933F938F939F93CA
:10021000AF93BF938091570290915802A0915902D9
:10022000B0915A023091560223E0230F2D3720F46B
:100230000196A11DB11D05C026E8230F0296A11D40
:10024000B11D209356028093570290935802A093B9
:100250005902B0935A0280915B0290915C02A09186
:100260005D02B0915E020196A11DB11D80935B02FB
:1002700090935C02A0935D02B0935E02BF91AF9138
:100280009F918F913F912F910F900FBE0F901F90D4
:1002900018953FB7F89480915B0290915C02A09111
:1002A0005D02B0915E0226B5A89B05C02F3F19F0F4
:1002B0000196A11DB11D3FBF6627782F892F9A2F68
:1002C000620F711D811D911D42E0660F771F881F0F
:1002D000991F4A95D1F70895CF92DF92EF92FF923E
:1002E000CF93DF936B017C01D4DFEB01C114D10408
:1002F000E104F10479F064D2CCDF6C1B7D0B683E25
:100300007340A0F381E0C81AD108E108F108C85190
:10031000DC4FECCFDF91CF91FF90EF90DF90CF904B
:100320000895789484B5826084BD84B5816084BD6D
:1003300085B5826085BD85B5816085BDEEE6F0E05E
:10034000808181608083E1E8F0E0108280818260BA
:100350008083808181608083E0E8F0E0808181603B
:100360008083E1EBF0E0808184608083E0EBF0E06B
:10037000808181608083E1E9F0E080818260808318
:10038000808181608083E0E9F0E08081816080830A
:10039000E1EAF0E0808182608083808181608083F7
:1003A000E0EAF0E0808181608083E1E2F1E0808139
:1003B00082608083808181608083E0E2F1E08081DF
:1003C00081608083EAE7F0E08081846080838081BF
:1003D0008260808380818160808380818068808367
:1003E0001092C1000895FC01818D228D90E0805C07
:1003F0009F4F821B91098F7399270895FC01918D5E
:10040000828D981731F0828DE80FF11D858D90E077
:1004100008958FEF9FEF0895FC01918D828D9817BD
:1004200061F0828DDF01A80FB11D5D968C91928DD8
:100430009F5F9F73928F90E008958FEF9FEF0895D5
:1004400081E693E0892B39F080E090E0892B19F068
:1004500038D1811125C080E090E0892B41F080E007
:1004600090E0892B21F00E94000081111CC080E0E7
:1004700090E0892B41F080E090E0892B21F00E94F0
:100480000000811113C080E090E0892BA1F080E092
:1004900090E0892B81F00E94000081110AC008952C
:1004A0000E940000D8CF0E940000E1CF0E9400000F
:1004B000EACF0C9400000895FC01848DDF01A80FA1
:1004C000B11DA35ABF4F2C91848D90E001968F737C
:1004D0009927848FA689B7892C93A089B1898C919B
:1004E00080648C93938D848D981306C00288F38961
:1004F000E02D80818F7D80830895CF93DF93EC0181
:10050000888D8823C1F0EA89FB89808185FD05C03B
:10051000A889B9898C9186FD0EC00FB607FCF5CF6E
:10052000808185FFF2CFA889B9898C9185FFEDCFB5
:10053000CE01C2DFE8CFDF91CF910895CF92DF9255
:10054000FF920F931F93CF93DF931F92CDB7DEB728
:100550006C0181E0D60158968C9358975B969C91DC
:100560005B975C968C915C97981307C05096ED91C1
:10057000FC915197808185FD2DC0F601038D10E01F
:100580000F5F1F4F0F731127F02EF601848DF812A5
:1005900010C00FB607FCF9CFD6015096ED91FC9133
:1005A0005197808185FFF1CFC601698385DF69811D
:1005B000ECCF838DE80FF11DE35AFF4F6083D60126
:1005C0005B960C935B975296ED91FC9153978081CB
:1005D00080620CC0D6015696ED91FC9157976083CE
:1005E0005096ED91FC91519780818064808381E0E9
:1005F00090E00F90DF91CF911F910F91FF90DF90CE
:10060000CF9008951F920F920FB60F9211240BB640
:100610000F922F938F939F93EF93FF93E0916F022D
:10062000F09170028081E0917502F091760282FD76
:1006300012C09081809178028F5F8F732091790230
:10064000821751F0E0917802F0E0E15AFD4F958F6A
:100650008093780201C08081FF91EF919F918F91EB
:100660002F910F900BBE0F900FBE0F901F901895FB
:100670001F920F920FB60F9211240BB60F922F9369
:100680003F934F935F936F937F938F939F93AF931A
:10069000BF93EF93FF938FE592E00EDFFF91EF9111
:1006A000BF91AF919F918F917F916F915F914F918A
:1006B0003F912F910F900BBE0F900FBE0F901F9088
:1006C00018958FE592E08FDE21E0892B09F420E078
:1006D000822F0895109262021092610288EE93E0D8
:1006E000A0E0B0E08093630290936402A09365025F
:1006F000B093660286E492E09093600280935F027A
:1007000085EC90E090936C0280936B0284EC90E017
:1007100090936E0280936D0280EC90E09093700253
:1007200080936F0281EC90E090937202809371024B
:1007300082EC90E0909374028093730286EC90E0D8
:10074000909376028093750210927802109279024B
:1007500010927A0210927B0208950895E2DDFDDF87
:10076000F1DCC0E2D2E03EDD2097E9F369DEFBCFA9
:10077000CF92DF92EF92FF920F931F93CF93DF936D
:100780006C017A01EB01E60EF71E00E010E0CE15D9
:10079000DF0561F06991D601ED91FC910190F08146
:1007A000E02DC6011995080F191FF1CFC801DF917F
:1007B000CF911F910F91FF90EF90DF90CF90089510
:1007C000089597FB072E16F4009406D077FD08D005
:1007D0000FD007FC05D03EF4909581959F4F08956A
:1007E000709561957F4F08950790F691E02D1994CB
:1007F000AA1BBB1B51E107C0AA1FBB1FA617B70747
:1008000010F0A61BB70B881F991F5A95A9F7809562
:0C0810009095BC01CD010895F894FFCF35
:10081C007800050005000400040004000400050035
:10082C000500040004000400040005000500040099
:10083C0004007F0000007F0000007F0000007F00AC
:10084C0000007F0000007F0000007F0000007F00A0
:10085C000000000000009E02B803F3010C02FE0130
:02086C007D020B
:00000001FF
